:100000003AC4000058C4000056C4000054C40000A4
:1000100052C4000050C400004EC400004CC4000094
:100020004AC4000048C4000046C4000044C40000A4
:1000300042C4000040C400003EC400003CC40000B4
:100040003AC4000038C4000036C4000034C40000C4
:1000500032C4000030C400002EC400002CC40000D4
:100060002AC4000028C4000026C4000024C40000E4
:1000700022C4000020C400001EC400001CC40000F4
:100080001AC4000018C4000016C4000014C4000004
:1000900012C4000010C400000EC400000CC4000014
:1000A0000AC4000008C4000006C4000004C4000024
:1000B00002C4000000C40000FEC30000FCC3000036
:1000C000FAC30000F8C30000F6C30000F4C6000045
:1000D000F2C30000F0C30000EEC30000ECC3000058
:1000E000EAC30000FFFFF8C0DEF72009864191FF58
:1000F0001304C320C8FF89826190101F14DA3D1ECB
:100100008340781708F47A3533F040203810EC201B
:10011000C620C640C6406C803900013C02770263AD
:1001200004630477083C0E0660CC1981E0180F03C5
:1001300036C2D8730631E3C4FE13266CCCCCC46639
:1001400023108C4663333332664C80257EA5003005
:10015000C33F30C30CD6F0C00844211084421108BC
:10016000003C6642C3C3C3C3C3C3C342663C113F22
:1001700033333333303E31B07830181C1C1C181820
:10018000100807F83C66C3C303061C0703C3C36615
:100190003C0C187162C9A346FE183060C07F201065
:1001A000080807F38C030180F06C63E01E31987837
:1001B0000C06F38D83C1E0D06C63E0FF03020604FC
:1001C0000C081818181030303E31B0783C1B18F865
:1001D000C6C1E0F06C63E03C66C2C3C3C3673B03C7
:1001E00003C2663CC00030C0000064A00081C78E1E
:1001F0000C0780700E0180FF80001FF000700E0160
:10020000C0183871C080003E31B0783018183818E6
:10021000180C0000018003F0060E06018600661D22
:10022000BB31CF18C79863CC31E611B399CCF786B0
:100230000001800070400FE00600F00F009019816F
:100240009810830C3FC204606606C030FF18330369
:10025000606C0D833FC606C0780F01E06FF81F8603
:100260001981A03C0180300600C0680D831861F040
:10027000FF183303603C0780F01E03C0780F036053
:10028000CFF0FFE030180C0603FD80C06030180F7F
:10029000F8FFC0C0C0C0C0FEC0C0C0C0C0C00F8397
:1002A0000E606603C00C00C1FC03C0360360730F10
:1002B0000F10C0780F01E03C0780FFFE03C0780FED
:1002C00001E03C06FFFFFFC0060C183060C1830749
:1002D0008F1E2780C0D8330C630CC1B83F0730C3D2
:1002E000186306606C0CC0C0C0C0C0C0C0C0C0C035
:1002F000C0C0FFE03F01FC1FE0FD05EC6F63791318
:10030000CD9E6CF1478E3C7180E07C0FC1E83D874B
:1003100098F11E33C3786F07E07C0E0F8183180CB1
:10032000C06C01E00F007803C01B01980C60C0F89E
:1003300000FF306C0F03C0F06FF300C0300C0300FF
:10034000C0000F8183180CC06C01E00F007803C05F
:100350001B01986C60C0FB0008FF8C0EC06C06C0CF
:100360006C0CFF8C0EC06C06C06C06C0703F186C25
:100370000F03C01E01F00E00F03C0D863F00FF860B
:10038000030180C06030180C06030180C0C0780FE4
:1003900001E03C0780F01E03C0780F01B061F0C09F
:1003A0006C0D8110630C610460CC1901603C070086
:1003B00060C18130E19870CC286626211330C8983E
:1003C0006C4C14340A1A0707030380818060630CA5
:1003D00030C1980F00E00600F019019830C60E6099
:1003E00060C0360630C30C1981D80F00600600606B
:1003F0000600600600FFC060300C060301C06030DC
:1004000018060300FFC0FB6DB6DB6DB6E0841084F8
:10041000108410841080EDB6DB6DB6DBE03060A296
:1004200044D8A180FFC0C6307E71B0C060F3DB0D40
:1004300086C73DC0C060301BCE360F0783C1E0F0D9
:100440007C6DE03C66C3C0C0C0C0C3663C03030310
:100450003B67C3C3C3C3C3C3673B3C66C3C3FFC0DF
:10046000C0C3663C366F66666666603B67C3C3C3DF
:10047000C3C3C3673B0303C67CC0C0C0DEE3C3C3C2
:10048000C3C3C3C3C3C3C3FFFFC03003333333335A
:100490003333E0C06030184C466361F0EC62319851
:1004A0006C30FFFFFFC0DEF71CF0C7863C31E18FE8
:1004B0000C7863C31E18C0DEE3C3C3C3C3C3C3C386
:1004C000C33C66C3C3C3C3C3C3663CDE71B0783CE0
:1004D0001E0F0783E36F30180C003B67C3C3C3C311
:1004E000C3C3673B030303DF318C6318C6003EE3DD
:1004F000C0C0E03C07C3E37E66F666666667C3C3BA
:10050000C3C3C3C3C3C3C77BC1A098CC4221B0D06F
:10051000281C0C00C61E3891C4CA66D316D0A68704
:100520001C38C0C6004362361C181C3C266243C1FE
:100530002198CC4261B0D0381C0C0603010300FEA8
:100540000C30C1861820C1FC3666666ECE666666C3
:1005500030FFFFFFFFC0C666666737666666C0612C
:100560002438000000000500010000020D0602F41E
:10057000040005040601F407000A0C0A00F5160041
:1005800009100A01F32800100D1001F442000B0DB0
:100590000C01F4540002040401F455000411060196
:1005A000F45E0004110601F4670005050701F46B11
:1005B0000006080B03F97100020405020072000432
:1005C000010601FC730002010501007400050D0520
:1005D00000F47D00080D0A01F48A00040D0A03F4FA
:1005E0009100090D0A01F4A000080D0A01F4AD0004
:1005F000070D0A02F4B900090D0A01F4C800090D3B
:100600000A01F4D700080D0A00F4E400090D0A01FC
:10061000F4F300080D0A01F40001020A0501F703D2
:1006200001030C0501F8080109090B01F813010980
:10063000040B01FB180109090B01F82301090D0A3C
:1006400001F4320111101201F454010C0D0C00F4EC
:1006500068010B0D0C01F47A010B0D0D01F48C01F6
:100660000B0D0D01F49E01090D0B01F4AD01080DF8
:100670000B01F4BA010C0D0E01F4CE010B0D0D01AE
:10068000F4E001020D0502F4E401070D0A01F4F0A3
:10069000010B0D0C01F40202080D0A01F40F020D0A
:1006A0000D0F01F425020B0D0D01F437020D0D0E97
:1006B00001F44D020A0D0C01F45E020D0E0E01F460
:1006C00075020C0D0D01F489020A0D0C01F49A0259
:1006D000090D0B01F4A9020B0D0D01F4BB020B0D6A
:1006E0000C00F4CD02110D1100F4E9020C0D0C0008
:1006F000F4FD020C0D0C00F411030A0D0B01F422A1
:100700000303110501F42903050D0500F432030369
:10071000110500F4390307070801F440030A010A30
:100720000003420304030500F44403090A0A01F725
:100730005003090D0A01F45F03080A0901F7690370
:10074000080D0A01F47603080A0A01F78003040D74
:100750000501F48703080E0A01F79503080D0A0145
:10076000F4A203020D0401F4A60304110400F4AF83
:1007700003090D0901F4BE03020D0401F4C2030DC7
:100780000A0F01F7D303080A0A01F7DD03080A0A72
:1007900001F7E703090D0A01F7F603080D0A01F74F
:1007A0000304050A0601F70A04080A0901F71404FC
:1007B000040C0501F51A04080A0A01F72404090AC1
:1007C0000900F730040D0A0D00F74104080A09007A
:1007D000F74B04090E0900F75B04070A0901F764E7
:1007E0000404110601F46D0402110402F4720404FD
:1007F000110601F47B0407030901F9E400620520F6
:100800007E160F0180961180FFB103012C2DB203DB
:10081000012C2DB306012C2D012C2DB40107C00392
:10082000A20284C101C5C2020A00C3028A2AC4020C
:100830008AEEC5010E20003601C83A0105022A04DD
:100840000000007F2B040000009F04E010021C0742
:10085000123732292D29252B3900010310E110030D
:100860001D07062E2C292D2E2E373F0000021013B7
:10087000800A2980640011241FBECFEFD1E2DEBFC1
:10088000CDBF00E00CBF12E0A0E0B2E0E8E0F5E28E
:1008900000E00BBF02C007900D92A231B107D9F75B
:1008A00022E0A2E1B2E001C01D92AD37B207E1F74C
:1008B0002FD00C948212A4CBCF93DF93CDB7DEB7A9
:1008C00085ED90E0FC01108284ED90E027E6FC01CC
:1008D000208381ED90E021ED30E0F9012081286155
:1008E000FC01208382ED90E022ED30E0F9012081CF
:1008F0002660FC01208381ED90E021ED30E0F901DC
:1009000020812068FC0120830000DF91CF910895B1
:10091000EF92FF920F931F93CF93DF93CDB7DEB784
:10092000EB970FB6F894DEBF0FBECDBF6BD3C4DF1D
:100930000E943F0D4DD582E00E94720D00E010E054
:1009400020E840EA60E080E00E94090E0F2EFFE1FF
:10095000EF2EF8EFFF2EF02D01E02BEF37E041E016
:1009600052E06CE389E10E948C0F80E090E0A8E403
:10097000B3E4888B998BAA8BBB8B20E030E04AE7ED
:1009800055E4688979898A899B890E94DE11DC0196
:10099000CB018C8B9D8BAE8BBF8B20E030E040E891
:1009A0005FE36C897D898E899F890E945D11882310
:1009B0002CF481E090E0998F888F3FC020E03FEFDA
:1009C0004FE757E46C897D898E899F890E94DA11EF
:1009D00018164CF520E030E040E251E4688979894E
:1009E0008A899B890E94DE11DC01CB01BC01CD010B
:1009F0000E946111DC01CB01998F888F0FC080E9C3
:100A000091E09B8F8A8F8A8D9B8D0197F1F79B8F49
:100A10008A8F888D998D0197998F888F888D998D70
:100A2000892B69F714C06C897D898E899F890E9402
:100A30006111DC01CB01998F888F888D998D9D8FF5
:100A40008C8F8C8D9D8D0197F1F79D8F8C8F789475
:100A50001B821A820BC08A819B81875E9D4FFC019D
:100A600010828A819B8101969B838A838A819B81E4
:100A70008436910580F31092120280E090E0A8EC99
:100A8000B2E48C839D83AE83BF8320E030E04AE7ED
:100A900055E46C817D818E819F810E94DE11DC0195
:100AA000CB018E8F9F8FA8A3B9A320E030E040E850
:100AB0005FE36E8D7F8D88A199A10E945D118823CF
:100AC0002CF481E090E09BA38AA33FC020E03FEF9D
:100AD0004FE757E46E8D7F8D88A199A10E94DA11AE
:100AE00018164CF520E030E040E251E46C817D8145
:100AF0008E819F810E94DE11DC01CB01BC01CD0102
:100B00000E946111DC01CB019BA38AA30FC080E985
:100B100091E09DA38CA38CA19DA10197F1F79DA3CA
:100B20008CA38AA19BA101979BA38AA38AA19BA1C5
:100B3000892B69F714C06E8D7F8D88A199A10E94C1
:100B40006111DC01CB019BA38AA38AA19BA19FA376
:100B50008EA38EA19FA10197F1F79FA38EA344E6D8
:100B600050E060E070E089E192E00E94721244E699
:100B700069E172E080E090E060D200E010E020E8FF
:100B800040EA60E080E00E94090E8091000281301E
:100B900009F098C080EA8983F8948981EE24EA9468
:100BA000FE2C01E02BEF37E049E152E0682F80E0B6
:100BB0000E948C0F80E090E0A8E4B2E488879987D7
:100BC000AA87BB8720E030E04AE755E4688579854D
:100BD0008A859B850E94DE11DC01CB0188A799A73D
:100BE000AAA7BBA720E030E040E85FE368A579A5AD
:100BF0008AA59BA50E945D1188232CF481E090E0DA
:100C00009DA78CA73FC020E03FEF4FE757E468A5C2
:100C100079A58AA59BA50E94DA1118164CF520E04B
:100C200030E040E251E4688579858A859B850E94A1
:100C3000DE11DC01CB01BC01CD010E946111DC01A0
:100C4000CB019DA78CA70FC080E991E09FA78EA73D
:100C50008EA59FA50197F1F79FA78EA78CA59DA5AF
:100C600001979DA78CA78CA59DA5892B69F714C01A
:100C700068A579A58AA59BA50E946111DC01CB011D
:100C80009DA78CA78CA59DA599AB88AB88A999A990
:100C90000197F1F799AB88AB8981E12CF12C01E048
:100CA0002BEF37E049E152E0682F80E00E948C0F83
:100CB000789480910002823009F4FBC089818250CF
:100CC00089836ACF80910002823009F061C0F89474
:100CD00080911202882F90E00197875E9D4FFC0162
:100CE00080818823F1F481ED90E021ED30E0F9017D
:100CF00020812F7EFC01208381ED90E021ED30E00A
:100D0000F90120812061FC01208344E669E172E061
:100D100080E090E0DAD11092120281E0809300022C
:100D20002FC080911202882F90E00197875E9D4F1F
:100D3000FC018081803259F480911202882F90E06A
:100D40000197875E9D4F2AE0FC01208319C08091A6
:100D50001202882F90E00197875E9D4FFC018081F1
:100D60008F3771F480911202882F90E00297875E8E
:100D70009D4FFC01108280911202825080931202DA
:100D800080910002823011F4109200027894FDCE1E
:100D900080910002882309F0F8CEF894EE24EA94BA
:100DA000FE2C01E02BEF37E049E152E068E280E001
:100DB0000E948C0F80E090E0A8E4B2E48C879D87CD
:100DC000AE87BF8720E030E04AE755E46C857D853B
:100DD0008E859F850E94DE11DC01CB018AAB9BAB27
:100DE000ACABBDAB20E030E040E85FE36AA97BA993
:100DF0008CA99DA90E945D1188232CF481E090E0CC
:100E00009FAB8EAB3FC020E03FEF4FE757E46AA9AE
:100E10007BA98CA99DA90E94DA1118164CF520E037
:100E200030E040E251E46C857D858E859F850E948F
:100E3000DE11DC01CB01BC01CD010E946111DC019E
:100E4000CB019FAB8EAB0FC080E991E099AF88AF2B
:100E500088AD99AD0197F1F799AF88AF8EA99FA999
:100E600001979FAB8EAB8EA99FA9892B69F714C000
:100E70006AA97BA98CA99DA90E946111DC01CB0103
:100E80009FAB8EAB8EA99FA99BAF8AAF8AAD9BAD5E
:100E90000197F1F79BAF8AAFE12CF12C01E02BEF2A
:100EA00037E049E152E068E280E00E948C0F7894DC
:100EB0006CCE00006ACE1F920F9200905F000F92DE
:100EC000112400905B000F922F933F934F935F93F9
:100ED0006F937F938F939F93AF93BF93EF93FF9302
:100EE000CF93DF93CDB7DEB780911202882341F410
:100EF00044E650E060E070E089E192E00E94721206
:100F000080911202882F90E026ED30E0F9012081D7
:100F1000875E9D4FFC012083809112028F5F80933A
:100F2000120280911202853610F01092120282E0B5
:100F30008093000280911202882F90E00197875ED3
:100F40009D4FFC018081803248F480911202882FED
:100F500090E00197875E9D4FFC0110820000DF91B9
:100F6000CF91FF91EF91BF91AF919F918F917F9121
:100F70006F915F914F913F912F910F9000925B0085
:100F80000F9000925F000F901F901895CF93DF9302
:100F90001F92CDB7DEB789838EE490E02981FC01F2
:100FA000208300008DE490E0FC0180818823D4F749
:100FB0008EE490E0FC0180810F90DF91CF91089545
:100FC000CF93DF93CDB7DEB785E290E025E230E046
:100FD000F90120812061FC0120830000DF91CF9185
:100FE0000895CF93DF93CDB7DEB785E290E025E299
:100FF00030E0F90120812F7EFC0120830000DF9189
:10100000CF910895CF93DF93CDB7DEB784E290E020
:1010100027E1FC0120838CE490E020E5FC012083A3
:1010200085E290E025E230E0F90120812161FC01B8
:1010300020830000DF91CF910895CF93DF93CDB748
:10104000DEB728970FB6F894DEBF0FBECDBF9D83E5
:101050008C837F836E8348878C819D8188279F70D6
:10106000892F99278A838C818B831982BADF83E049
:101070008DDF8A818BDF8B8189DF80E087DF282FFE
:101080008E819F81FC0120838E819F8101969F83A9
:101090008E8389818F5F89838981282F30E08C81BD
:1010A0009D81820F931F8F3F9F4020F499818885F7
:1010B000891718F785DF000028960FB6F894DEBF71
:1010C0000FBECDBFDF91CF910895CF93DF93CDB702
:1010D000DEB7A3970FB6F894DEBF0FBECDBF98A3BF
:1010E0008F8F7AA369A34BA38F8D98A188279F70B8
:1010F000892F992789838F8D8A8373DF86E046DF66
:101100005FDF6FDF82E042DF898140DF8A813EDF7F
:1011100089A19AA1FC01808139DF89A19AA1019658
:101120009AA389A38F8D98A1019698A38F8F8BA1E5
:1011300081508BA38F8D98A18F719927892B09F0EE
:1011400087C03EDF80E090E0A0EAB0E48F8398871C
:10115000A987BA8720E030E04AE755E46F817885B7
:1011600089859A850E94DE11DC01CB018B879C87E3
:10117000AD87BE8720E030E040E85FE36B857C858B
:101180008D859E850E945D1188232CF481E090E07E
:10119000988B8F873FC020E03FEF4FE757E46B8588
:1011A0007C858D859E850E94DA1118164CF520E00D
:1011B00030E040E251E46F81788589859A850E940C
:1011C000DE11DC01CB01BC01CD010E946111DC010B
:1011D000CB01988B8F870FC080E991E09A8B898B28
:1011E00089899A890197F1F79A8B898B8F859889DC
:1011F0000197988B8F878F859889892B69F714C001
:101200006B857C858D859E850E946111DC01CB01FB
:10121000988B8F878F8598899C8B8B8B8B899C89EA
:101220000197F1F79C8B8B8BDCDE86E0AFDEC8DEAE
:10123000D8DE8F8D98A188279F70892F9927898361
:101240008F8D8A8382E0A2DE8981A0DE8A819EDE84
:101250008F8D98A18115904120F48BA1882309F0EE
:1012600057CFAEDE80E090E0A0EAB0E48B839C83B1
:10127000AD83BE8320E030E04AE755E46B817C819A
:101280008D819E810E94DE11DC01CB018D8B9E8BB6
:10129000AF8BB88F20E030E040E85FE36D897E8956
:1012A0008F89988D0E945D1188232CF481E090E055
:1012B0009A8F898F3DC020E03FEF4FE757E46D895B
:1012C0007E898F89988D0E94DA11181644F520E0E6
:1012D00030E040E251E46B817C818D819E810E94EF
:1012E000DE11DC01CB01BC01CD01EBD7DC01CB0170
:1012F0009A8F898F0FC080E991E09C8F8B8F8B8DA7
:101300009C8D0197F1F79C8F8B8F898D9A8D01971A
:101310009A8F898F898D9A8D892B69F713C06D8972
:101320007E898F89988DCDD7DC01CB019A8F898FEB
:10133000898D9A8D9E8F8D8F8D8D9E8D0197F1F762
:101340009E8F8D8F0000A3960FB6F894DEBF0FBE60
:10135000CDBFDF91CF910895CF93DF931F92CDB78B
:10136000DEB789838EE490E02981FC0120830000B0
:101370008DE490E0FC0180818823D4F78EE490E036
:10138000FC0180810F90DF91CF910895CF93DF937F
:10139000CDB7DEB785E290E025E230E0F9012081AB
:1013A0002160FC0120830000DF91CF910895CF934D
:1013B000DF93CDB7DEB785E290E025E230E0F901BA
:1013C00020812E7FFC0120830000DF91CF910895C2
:1013D000CF93DF93CDB7DEB782E290E022E230E038
:1013E000F90120812160FC0120830000DF91CF9171
:1013F0000895CF93DF93CDB7DEB78BE091E02BE07C
:1014000031E0F90120812068FC0120830000DF9198
:10141000CF910895CF93DF93CDB7DEB78BE091E006
:101420002BE031E0F90120812F77FC0120830000BF
:10143000DF91CF910895CF93DF93CDB7DEB78BE2E5
:1014400090E02BE230E0F90120812068FC0120834C
:101450000000DF91CF910895CF93DF93CDB7DEB732
:101460008BE290E02BE230E0F90120812F77FC0144
:1014700020830000DF91CF910895CF93DF931F92D7
:10148000CDB7DEB78983C6DF92DF898165DF7EDF76
:1014900000000F90DF91CF910895CF93DF931F92BB
:1014A000CDB7DEB78983A5DF82DF898155DF6EDFA7
:1014B00000000F90DF91CF910895CF93DF931F929B
:1014C0001F92CDB7DEB79A83898389819A81892F4C
:1014D000992742DF898140DF00000F900F90DF9154
:1014E000CF910895CF93DF93CDB7DEB7AA970FB60C
:1014F000F894DEBF0FBECDBF5ADF9DDF80E090E0E5
:10150000AAEFB3E489839A83AB83BC8320E030E005
:101510004AE755E469817A818B819C814FD7DC0150
:10152000CB0189A39AA3ABA3BCA320E030E040E8A1
:101530005FE369A17AA18BA19CA1BFD688232CF47B
:1015400081E090E09EA38DA33BC020E03FEF4FE7FA
:1015500057E469A17AA18BA19CA12CD718163CF560
:1015600020E030E040E251E469817A818B819C8106
:1015700025D7DC01CB01BC01CD01A3D6DC01CB0119
:101580009EA38DA30FC080E991E098A78FA38FA1A0
:1015900098A50197F1F798A78FA38DA19EA1019718
:1015A0009EA38DA38DA19EA1892B69F713C069A16C
:1015B0007AA18BA19CA185D6DC01CB019EA38DA332
:1015C0008DA19EA19AA789A789A59AA50197F1F750
:1015D0009AA789A741DF80E090E0AAEFB3E48D836A
:1015E0009E83AF83B88720E030E04AE755E46D8101
:1015F0007E818F819885E2D6DC01CB018F8B988F1D
:10160000A98FBA8F20E030E040E85FE36F89788DE2
:10161000898D9A8D52D688232CF481E090E09C8F9E
:101620008B8F3BC020E03FEF4FE757E46F89788D09
:10163000898D9A8DBFD618163CF520E030E040E247
:1016400051E46D817E818F819885B8D6DC01CB0114
:10165000BC01CD0136D6DC01CB019C8F8B8F0FC036
:1016600080E991E09E8F8D8F8D8D9E8D0197F1F792
:101670009E8F8D8F8B8D9C8D01979C8F8B8F8B8DEB
:101680009C8D892B69F713C06F89788D898D9A8D10
:1016900018D6DC01CB019C8F8B8F8B8D9C8D98A3F2
:1016A0008F8F8F8D98A10197F1F798A38F8FC3DE4D
:1016B00080E090E0AAEFB3E489879A87AB87BC8784
:1016C00020E030E04AE755E469857A858B859C8582
:1016D00075D6DC01CB018D879E87AF87B88B20E064
:1016E00030E040E85FE36D857E858F859889E5D59C
:1016F00088232CF481E090E09A8B898B3BC020E01A
:101700003FEF4FE757E46D857E858F85988952D6E8
:1017100018163CF520E030E040E251E469857A8516
:101720008B859C854BD6DC01CB01BC01CD01C9D595
:10173000DC01CB019A8B898B0FC080E991E09C8BF7
:101740008B8B8B899C890197F1F79C8B8B8B89897B
:101750009A8901979A8B898B89899A89892B69F74C
:1017600013C06D857E858F859889ABD5DC01CB0153
:101770009A8B898B89899A899E8B8D8B8D899E897D
:101780000197F1F79E8B8D8B0000AA960FB6F89407
:10179000DEBF0FBECDBFDF91CF910895CF93DF9312
:1017A000CDB7DEB7E5970FB6F894DEBF0FBECDBF5D
:1017B0009DAB8CAB8CA99DA99C012F5F3F4F3DAB8E
:1017C0002CAB9E838D838D819E81FC0184918F83C0
:1017D0008F818887198244C18CA99DA99C012F5FA4
:1017E0003F4F3DAB2CAB9A87898789859A85FC0151
:1017F00084918B878B8541DE8CA99DA99C012F5FED
:101800003F4F3DAB2CAB9D878C878C859D85FC0124
:1018100084918E878E858F878F858078888B8F8542
:101820008F778F871A8213C08CA99DA99C012F5F87
:101830003F4F3DAB2CAB9A8B898B89899A89FC01F0
:1018400084918B8B8B8929DE8A818F5F8A839A8131
:101850008F85981748F38889882309F4FEC08CA9DE
:101860009DA99C012F5F3F4F3DAB2CAB9D8B8C8B7B
:101870008C899D89FC0184918E8B8E898F8B8F89B9
:101880008F3F09F06DC080E090E0AAEFB3E48C8F49
:101890009D8FAE8FBF8F20E030E04AE755E46C8D1E
:1018A0007D8D8E8D9F8D8AD5DC01CB0188A399A378
:1018B000AAA3BBA320E030E040E85FE368A179A1E0
:1018C0008AA19BA1FAD488232CF481E090E09DA307
:1018D0008CA33BC020E03FEF4FE757E468A179A11C
:1018E0008AA19BA167D518163CF520E030E040E2C4
:1018F00051E46C8D7D8D8E8D9F8D60D5DC01CB018B
:10190000BC01CD01DED4DC01CB019DA38CA30FC0B3
:1019100080E991E09FA38EA38EA19FA10197F1F78B
:101920009FA38EA38CA19DA101979DA38CA38CA1A5
:101930009DA1892B69F791C068A179A18AA19BA17A
:10194000C0D4DC01CB019DA38CA38CA19DA199A740
:1019500088A788A599A50197F1F799A788A77DC0C1
:101960001C821B8271C080E090E0A0EAB0E4888F06
:10197000998FAA8FBB8F20E030E04AE755E4688D4D
:10198000798D8A8D9B8D1AD5DC01CB018AA79BA707
:10199000ACA7BDA720E030E040E85FE36AA57BA5E7
:1019A0008CA59DA58AD488232CF481E090E09FA784
:1019B0008EA73BC020E03FEF4FE757E46AA57BA529
:1019C0008CA59DA5F7D418163CF520E030E040E248
:1019D00051E4688D798D8A8D9B8DF0D4DC01CB012B
:1019E000BC01CD016ED4DC01CB019FA78EA70FC037
:1019F00080E991E099AB88AB88A999A90197F1F7A3
:101A000099AB88AB8EA59FA501979FA78EA78EA5A2
:101A10009FA5892B69F713C06AA57BA58CA59DA5F9
:101A200050D4DC01CB019FA78EA78EA59FA59BABB1
:101A30008AAB8AA99BA90197F1F79BAB8AAB8B81F3
:101A40009C8105969C838B838F89282F30E08B8126
:101A50009C81821793070CF486CF89818F5F8983DD
:101A600099818885981708F4B7CE0000E5960FB6DF
:101A7000F894DEBF0FBECDBFDF91CF910895CF9315
:101A8000DF93CDB7DEB78AE290E02AE230E0F901D9
:101A900020812064FC0120838AE091E02AE031E08B
:101AA000F90120812068FC01208381E290E021E29D
:101AB00030E0F90120812160FC01208313DD82E008
:101AC00098E06CDE8DE398E069DE8AE498E066DEFB
:101AD00080E88093170280EA809318020000DF916B
:101AE000CF910895CF93DF931F92CDB7DEB789834F
:101AF00086E3C3DC8981882F90E08130910561F015
:101B0000823091051CF4892BC1F04AC082309105C6
:101B1000B1F1039719F144C088ECBFDC80E88093F1
:101B2000170280EA809318028091140280931602B3
:101B3000809113028093150233C088EAAEDC80EAFC
:101B40008093170280E8809318028091130280939B
:101B50001602809114028093150222C088E09DDC59
:101B600080E88093170280EA809318028091140223
:101B700080931602809113028093150211C088E6AB
:101B80008CDC80EA8093170280E8809318028091B1
:101B900013028093160280911402809315020000B4
:101BA00000000F90DF91CF910895CF93DF9300D085
:101BB0001F92CDB7DEB789836A834B832C838AE279
:101BC0005CDC80E06ADC909116028981890F65DC1B
:101BD00080E063DC909116028B81890F5EDC8BE2E2
:101BE0004CDC80E05ADC909115028A81890F55DC2B
:101BF00080E053DC909115028C81890F4EDC8CE2E1
:101C00003CDC00000F900F900F900F90DF91CF9170
:101C100008950F931F93CF93DF93CDB7DEB7289727
:101C20000FB6F894DEBF0FBECDBF8B836C834D83A0
:101C30002E8318870F83809117029B81981708F0D5
:101C40005EC0809118029C81981708F058C08B8163
:101C5000282F30E08D81882F90E0820F931F9C0108
:101C60002150310980911702882F90E028173907F9
:101C70003CF0909117028B81292F281B822F8D8396
:101C80008C81282F30E08E81882F90E0820F931F67
:101C90009C012150310980911802882F90E028176B
:101CA00039073CF0909118028C81292F281B822F34
:101CB0008E839C818E81890F2FEF280F9B818D81D0
:101CC000890F8150482F6C818B816FDF92DB6FDB36
:101CD00019820FC01A8206C08F819885EEDB8A8137
:101CE0008F5F8A839A818D819817B0F389818F5F86
:101CF000898399818E81981768F348DB01C00000C1
:101D000028960FB6F894DEBF0FBECDBFDF91CF91FE
:101D10001F910F910895EF92FF920F931F93CF930E
:101D2000DF93CDB7DEB768970FB6F894DEBF0FBE6E
:101D3000CDBF9F878E87798B688B5B8B4A8B3D8B62
:101D40002C8B0E8BF88EEF8A8E89882309F4D6C0EF
:101D50008C899D89FC01808191819A8789878A89F4
:101D60009B89FC01808191819A8389831B821C82DB
:101D70001E821D821886B9C01F826BC08C81882389
:101D8000B1F489819A819C012F5F3F4F3A83298367
:101D900029853A85820F931F9C878B878B859C852D
:101DA000FC0184918D878D858B8380E88C839B815A
:101DB0008C818923882331F08D819E8101969E83B9
:101DC0008D8341C08D819E81892BE9F19D818E8912
:101DD000989F402D11248A899B89FC018681282F98
:101DE000880F330B8885882F90E0820F931F982FE0
:101DF0008E89989F902D11248889592F580F8A8990
:101E00009B89FC018581282F880F330B8F81882FB8
:101E100090E0820F931F9C018D819E81B901681B08
:101E2000790BCB01982F8E89989F902D11248E8548
:101E3000392F380F8F89988D8C012E89652F832F2C
:101E4000E8DE1E821D828C8186958C838F818F5F58
:101E50008F838A899B89FC0192818F81891708F47D
:101E60008DCF8D819E81892BE9F19D818E89989FEF
:101E7000402D11248A899B89FC018681282F880F97
:101E8000330B8885882F90E0820F931F982F8E89BF
:101E9000989F902D11248889592F580F8A899B89E2
:101EA000FC018581282F880F330B8F81882F90E0CC
:101EB000820F931F9C018D819E81B901681B790B54
:101EC000CB01982F8E89989F902D11248E85392FC4
:101ED000380F8F89988D8C012E89652F832F99DE7D
:101EE0001E821D8288858F5F88878A899B89FC0175
:101EF00093818885891708F43FCF01C00000689658
:101F00000FB6F894DEBF0FBECDBFDF91CF911F910A
:101F10000F91FF90EF900895EF92FF920F93CF9360
:101F2000DF93CDB7DEB7C558D1090FB6F894DEBF41
:101F30000FBECDBFFE01E358FF4F8083CE01825814
:101F40009F4FDC016C93CE0181589F4FFC01518360
:101F50004083CE018F579F4FDC012D933C93CE01E0
:101F60008D579F4FFC010083CE018C579F4FDC01A2
:101F7000ED92FC9219821A82CE0183589F4FFC0188
:101F80008081082E000C990B9C838B83CE01825894
:101F90009F4FDC018C91082E000C990B9E838D8342
:101FA000CE010B9644E650E060E070E09BD21F82C9
:101FB00054C08F81882F90E09E0121583F4FF90136
:101FC00020813181820F931FDC018C918A3079F05E
:101FD0008F81882F90E09E0121583F4FF901208189
:101FE0003181820F931FDC018C91882311F5898147
:101FF000882371F08981882F90E001979E01255FE9
:102000003F4F820F931FFC0180819A81890F8A8341
:102010008981882F90E03F812A81432F421B9E01B6
:10202000255F3F4F820F931FDC014C9389818F5FA7
:1020300089838F81882F90E09E0121583F4FF901BD
:1020400020813181820F931FDC018C91882311F450
:1020500084E68F838F818F5F8F838F81843608F42E
:10206000A8CF8B85882F90E0880F991F9C01220FA5
:10207000331F220F331F280F391FCE018D579F4F5B
:10208000FC018081882F90E0289FA001299F500D9E
:10209000389F500D1124CA0199230CF4019695958F
:1020A00087959C0180E590E0821B930B9C838B833A
:1020B00081E08983CE018F579F4FDC012D913C91A8
:1020C000CE0181599F4F47E050E0B90102D21986F5
:1020D0001886D7C0CE0181589F4FFC0120813181E5
:1020E00088859985820F931FDC018C918A878A8568
:1020F0008A3009F04FC08981882F90E09E01255FCA
:102100003F4F820F931FFC018081882F90E0880F42
:10211000991F9C01220F331F220F331F280F391FD5
:10212000CE018D579F4FDC018C91882F90E0289F26
:10213000A001299F500D389F500D1124CA019923E9
:102140000CF40196959587959C0180E590E0821BA3
:10215000930B9C838B83CE0181599F4FFC01868119
:10216000482F50E0CE018D579F4FDC018C91282FD6
:1021700030E0429FC001439F900D529F900D11246B
:102180002D813E81820F931F9E838D8389818F5F76
:10219000898372C0CE0181599F4FFC0194818A8549
:1021A000891708F469C0CE0181599F4FDC0115964B
:1021B0009C918A85981708F45FC08A858D3009F450
:1021C0005BC0CE0181599F4FFC01228133818A85FA
:1021D000482F50E0CE0181599F4FDC0114968C911D
:1021E000882F90E0FA01E81BF90BCF01AC01CA017E
:1021F000880F991F880F991F880F991F841B950BB3
:10220000280F391FCE018A589F4F47E050E0B9018F
:1022100060D1CE018C579F4FFC01A081B181CE01CE
:102220008D579F4F9E0121593F4FAE014A585F4F36
:102230006D817E81EB81FC817D01DC010C91CF0100
:102240006ADDCE018A589F4FFC018481482F50E0FF
:10225000CE018D579F4FDC018C91282F30E0429F9B
:10226000C001439F900D529F900D11242B813C8102
:10227000820F931F9C838B8388859985019699870C
:102280008887CE0181589F4FFC018081918131D197
:102290009C01888599858217930708F41BCF00005D
:1022A000CB57DF4F0FB6F894DEBF0FBECDBFDF9127
:1022B000CF910F91FF90EF9008952FD008F481E017
:1022C000089557D088F09F5790F0B92F9927B751AC
:1022D000A0F0D1F0660F771F881F991F1AF0BA95EA
:1022E000C9F712C0B13081F05ED0B1E008955BC093
:1022F000672F782F8827B85F39F0B93FCCF38695E0
:1023000077956795B395D9F73EF49095809570953C
:1023100061957F4F8F4F9F4F0895990F0008550F7C
:10232000AA0BE0E8FEEF16161706E807F907C0F05B
:1023300012161306E407F50798F0621B730B840B63
:10234000950B39F40A2661F0232B242B252B21F43D
:1023500008950A2609F4A140A6958FEF811D811DDD
:10236000089557FD9058440F551F59F05F3F71F085
:102370004795880F97FB991F61F09F3F79F08795EC
:102380000895121613061406551FF2CF4695F1DF75
:1023900008C0161617061806991FF1CF8695710505
:1023A000610508940895E894BB2766277727CB0139
:1023B00097F90895B2DF08F48FEF08950BD078C035
:1023C00069D028F06ED018F0952309F05AC05FC08C
:1023D0001124EACFC6DFA0F3959FD1F3950F50E00B
:1023E000551F629FF001729FBB27F00DB11D639FC7
:1023F000AA27F00DB11DAA1F649F6627B00DA11D6D
:10240000661F829F2227B00DA11D621F739FB00D12
:10241000A11D621F839FA00D611D221F749F332782
:10242000A00D611D231F849F600D211D822F762F1B
:102430006A2F11249F5750408AF0E1F088234AF018
:10244000EE0FFF1FBB1F661F771F881F9150504064
:10245000A9F79E3F510570F014C0A6CF5F3FECF383
:10246000983EDCF3869577956795B795F795E79550
:102470009F5FC1F7FE2B880F911D9695879597F961
:10248000089597F99F6780E870E060E008959FEFF6
:1024900080EC089500240A941616170618060906FB
:1024A000089500240A9412161306140605060895CA
:1024B000092E0394000C11F4882352F0BB0F40F452
:1024C000BF2B11F460FF04C06F5F7F4F8F4F9F4F92
:1024D0000895FB01DC0102C005900D92415050406F
:1024E000D8F70895DC0101C06D9341505040E0F7EA
:1024F0000895FC0101900020E9F7809590958E0FDA
:082500009F1F0895F894FFCF1E
:10250800015354373733350A57656C636F6D65214E
:022518000000C1
:00000001FF
